HDR_BENEDATASHR20190816
1000000019           Wbcukynxvqwydeplzbud                                        Isokspeqxrbjxiclolqj                    192408158125 Gqsidsekffpuazrmlfokksebgbmxnwwifo St                                                                                                                           Zalhkpsjcbhy                            ST00000    F2019081220190814      N        1-800T T9990Zcxmzokffxpirifmlwmgwljmuhueukoesl ACO                                
1000000175           Zgfoekajwweryhiacxgnj                                       Bmrzkoxcc                               1916061842163 Fhqkuswoahatwdwecjtokpzw Blvd                                                                                                                                  Envicjloplx                             ST00000    M20190815201908131800 T         1-800TNT9990Pkeryksszefhjvld ACO                                                  
1000000175           Zgfoekajwweryhiacxgnj                                       Bmrzkoxcc                               1916061842163 Fhqkuswoahatwdwecjtokpzw Blvd                                                                                                                                  Envicjloplx                             ST00000    M2019081120190812     T         1-800  T9990Pkeryksszefhjvld ACO                                                  
1000000175           Zgfoekajwweryhiacxgnj                                       Bmrzkoxcc                               1916061842163 Fhqkuswoahatwdwecjtokpzw Blvd                                                                                                                                  Envicjloplx                             ST00000    M2019081520190815     T              TNT9990Pkeryksszefhjvld ACO                                                  
1000000305           Ohfrefgyjkdbjmrihwkutl                                      Qhlidvsdrffmhvpuwviwvedaqt              1949051135687 Krhbtbegokpeurkuzzimgiprlcnhosodmc Way                                                                                                                         Foa                                     ST00000    U2019081420190811     TY        1-800 NT9990Lzcuzuptd ACO                                                         
1000000305           Ohfrefgyjkdbjmrihwkutl                                      Qhlidvsdrffmhvpuwviwvedaqt              1949051135687 Krhbtbegokpeurkuzzimgiprlcnhosodmc Way                                                                                                                         Foa                                     ST00000    U20190814201908161800                T T9990Lzcuzuptd ACO                                                         
1000000305           Ohfrefgyjkdbjmrihwkutl                                      Qhlidvsdrffmhvpuwviwvedaqt              1949051135687 Krhbtbegokpeurkuzzimgiprlcnhosodmc Way                                                                                                                         Foa                                     ST00000    U2019081520190811     TN        1-800  T9990Lzcuzuptd ACO                                                         
1000000305           Ohfrefgyjkdbjmrihwkutl                                      Qhlidvsdrffmhvpuwviwvedaqt              1949051135687 Krhbtbegokpeurkuzzimgiprlcnhosodmc Way                                                                                                                         Foa                                     ST00000    U20190815201908161800 TY        1-800  T9990Lzcuzuptd ACO                                                         
1000039553           Qiu                                                         Ozdlectxbqxpuloew                       1925070516152 Iqrozuxoiyzlvjydqgvtvvlqmwqedyzjxdbvwlehhhs Ave                                                                                                                Qbqxhldnauagt                           ST00000    F20190815201908091800  Y             T T9990Pyockcvogcunmqyebbzyugqrxkpoixajthzrafvbwk ACO                        
1000039553           Qiu                                                         Ozdlectxbqxpuloew                       1925070516152 Iqrozuxoiyzlvjydqgvtvvlqmwqedyzjxdbvwlehhhs Ave                                                                                                                Qbqxhldnauagt                           ST00000    F2019081320190811     TY        1-800T T9990Pyockcvogcunmqyebbzyugqrxkpoixajthzrafvbwk ACO                        
1000039553           Qiu                                                         Ozdlectxbqxpuloew                       1925070516152 Iqrozuxoiyzlvjydqgvtvvlqmwqedyzjxdbvwlehhhs Ave                                                                                                                Qbqxhldnauagt                           ST00000    F20190811201908091800  N             T T9990Pyockcvogcunmqyebbzyugqrxkpoixajthzrafvbwk ACO                        
1000039553           Qiu                                                         Ozdlectxbqxpuloew                       1925070516152 Iqrozuxoiyzlvjydqgvtvvlqmwqedyzjxdbvwlehhhs Ave                                                                                                                Qbqxhldnauagt                           ST00000    F2019081520190816     T         1-800 NT9990Pyockcvogcunmqyebbzyugqrxkpoixajthzrafvbwk ACO                        
1000039620           Xifxxfkhktsrkvilxsvmlkqxkgg                                 Kaunqinofxylln                          1908020116166 Opokessvjonzrliirebdqggtjgntdfohob Dr                                                                                                                          Eakbqdb                                 ST00000    M2019080920190815               1-800  T9990Cvmjzvkcctuyuvmxvjydrmwlkmvbmsdacpdngzqmvhydmhjfsr ACO                
1000039620           Xifxxfkhktsrkvilxsvmlkqxkgg                                 Kaunqinofxylln                          1908020116166 Opokessvjonzrliirebdqggtjgntdfohob Dr                                                                                                                          Eakbqdb                                 ST00000    M2019081220190812      N             TNT9990Cvmjzvkcctuyuvmxvjydrmwlkmvbmsdacpdngzqmvhydmhjfsr ACO                
1000039620           Xifxxfkhktsrkvilxsvmlkqxkgg                                 Kaunqinofxylln                          1908020116166 Opokessvjonzrliirebdqggtjgntdfohob Dr                                                                                                                          Eakbqdb                                 ST00000    M20190815201908191800 TN             TNT9990Cvmjzvkcctuyuvmxvjydrmwlkmvbmsdacpdngzqmvhydmhjfsr ACO                
1000039620           Xifxxfkhktsrkvilxsvmlkqxkgg                                 Kaunqinofxylln                          1908020116166 Opokessvjonzrliirebdqggtjgntdfohob Dr                                                                                                                          Eakbqdb                                 ST00000    M2019081320190815               1-800  T9990Cvmjzvkcctuyuvmxvjydrmwlkmvbmsdacpdngzqmvhydmhjfsr ACO                
1000039620           Xifxxfkhktsrkvilxsvmlkqxkgg                                 Kaunqinofxylln                          1908020116166 Opokessvjonzrliirebdqggtjgntdfohob Dr                                                                                                                          Eakbqdb                                 ST00000    M20190813201908121800  Y        1-800  T9990Cvmjzvkcctuyuvmxvjydrmwlkmvbmsdacpdngzqmvhydmhjfsr ACO                
1000039915           Xihtvzxq                                                    Xoymuftom                               1917050125936 Afamgaylzcnyjeifosviuhtf Blvd                                                                                                                                  Lugobnzmmwgbzl                          ST00000    M20190816201908151800 TY             TNT9990Vsofawvjxoznlxymah ACO                                                
1000039915           Xihtvzxq                                                    Xoymuftom                               1917050125936 Afamgaylzcnyjeifosviuhtf Blvd                                                                                                                                  Lugobnzmmwgbzl                          ST00000    M20190816201908101800  N        1-800TNT9990Vsofawvjxoznlxymah ACO                                                
1000039915           Xihtvzxq                                                    Xoymuftom                               1917050125936 Afamgaylzcnyjeifosviuhtf Blvd                                                                                                                                  Lugobnzmmwgbzl                          ST00000    M2019081620190817      Y             T T9990Vsofawvjxoznlxymah ACO                                                
1000039915           Xihtvzxq                                                    Xoymuftom                               1917050125936 Afamgaylzcnyjeifosviuhtf Blvd                                                                                                                                  Lugobnzmmwgbzl                          ST00000    M20190816201908101800  N               T9990Vsofawvjxoznlxymah ACO                                                
1000004199           Svfvqrmtjpklfz                                              Ptawizsc                                1912041126536 Gzjsguwkkjwjlishobftxtvzsyvmredphdnmxgjvuy Ave                                                                                                                 Vksdqsweiwbytgtnrzslzqeyhtbqurvw        ST00000    M20190811201908161800 TY               T9991Yvyydptecafbyfletibckxllqbbemmxxgvetuzizrhj ACO                       
1000004199           Svfvqrmtjpklfz                                              Ptawizsc                                1912041126536 Gzjsguwkkjwjlishobftxtvzsyvmredphdnmxgjvuy Ave                                                                                                                 Vksdqsweiwbytgtnrzslzqeyhtbqurvw        ST00000    M20190810201908171800 TY             T T9991Yvyydptecafbyfletibckxllqbbemmxxgvetuzizrhj ACO                       
1000004223           Ixgncsmpwkbxhfqdrvxbnzxaufs                                 Xzpvstzp                                195308218386 Yuctnsgqyhtepajsvrgrzdra Way                                                                                                                                    Esfushg                                 ST00000    M2019081220190815      N              NT9991Xtufubdlhtozoazxbmakorqmlyiekdnlrzbzogclngxhgqsqss ACO                
1000004223           Ixgncsmpwkbxhfqdrvxbnzxaufs                                 Xzpvstzp                                195308218386 Yuctnsgqyhtepajsvrgrzdra Way                                                                                                                                    Esfushg                                 ST00000    M20190809201908141800 TN        1-800  T9991Xtufubdlhtozoazxbmakorqmlyiekdnlrzbzogclngxhgqsqss ACO                
1000004223           Ixgncsmpwkbxhfqdrvxbnzxaufs                                 Xzpvstzp                                195308218386 Yuctnsgqyhtepajsvrgrzdra Way                                                                                                                                    Esfushg                                 ST00000    M20190810201908161800 T              TNT9991Xtufubdlhtozoazxbmakorqmlyiekdnlrzbzogclngxhgqsqss ACO                
1000004252           Xwbqzbumcmvognatyfzubweny                                   Vbbbjqdfwyqbbxqgxhejuols                1921081448147 Fbrlabezpyjnnlbprhorhfnjfxt Dr                                                                                                                                 Layqsumahknxnjcbtjvvlewlprabscctwneoj   ST00000    M2019080920190817               1-800TNT9991Dnefcmqishdoleluucaqsvdrdqrjrnysmo ACO                                
1000004252           Xwbqzbumcmvognatyfzubweny                                   Vbbbjqdfwyqbbxqgxhejuols                1921081448147 Fbrlabezpyjnnlbprhorhfnjfxt Dr                                                                                                                                 Layqsumahknxnjcbtjvvlewlprabscctwneoj   ST00000    M2019081520190811     TY        1-800T T9991Dnefcmqishdoleluucaqsvdrdqrjrnysmo ACO                                
1000004252           Xwbqzbumcmvognatyfzubweny                                   Vbbbjqdfwyqbbxqgxhejuols                1921081448147 Fbrlabezpyjnnlbprhorhfnjfxt Dr                                                                                                                                 Layqsumahknxnjcbtjvvlewlprabscctwneoj   ST00000    M2019081220190816     TY        1-800 NT9991Dnefcmqishdoleluucaqsvdrdqrjrnysmo ACO                                
1000004275           Answrxrjwpeofgzkjbvookkkbql                                 Tyuslhxjqngbeldukut                     1914122526168 Ajmlswtngmvumpmfgnqbmnkgnmbofrgkv Way                                                                                                                          Hvsywnwudsds                            ST00000    M2019081020190816     TN              NT9991Zh ACO                                                                
1000004275           Answrxrjwpeofgzkjbvookkkbql                                 Tyuslhxjqngbeldukut                     1914122526168 Ajmlswtngmvumpmfgnqbmnkgnmbofrgkv Way                                                                                                                          Hvsywnwudsds                            ST00000    M2019081220190818     T         1-800T T9991Zh ACO                                                                
1000004275           Answrxrjwpeofgzkjbvookkkbql                                 Tyuslhxjqngbeldukut                     1914122526168 Ajmlswtngmvumpmfgnqbmnkgnmbofrgkv Way                                                                                                                          Hvsywnwudsds                            ST00000    M20190814201908121800 TN        1-800T T9991Zh ACO                                                                
1000004275           Answrxrjwpeofgzkjbvookkkbql                                 Tyuslhxjqngbeldukut                     1914122526168 Ajmlswtngmvumpmfgnqbmnkgnmbofrgkv Way                                                                                                                          Hvsywnwudsds                            ST00000    M20190813201908191800 T         1-800T T9991Zh ACO                                                                
1000004275           Answrxrjwpeofgzkjbvookkkbql                                 Tyuslhxjqngbeldukut                     1914122526168 Ajmlswtngmvumpmfgnqbmnkgnmbofrgkv Way                                                                                                                          Hvsywnwudsds                            ST00000    M20190814201908111800 TN        1-800TNT9991Zh ACO                                                                
1000004293           Hvvvfidcqpzhiufouh                                          Amvgjsg                                 1954060625034 X Ave                                                                                                                                                          Xemyjxzlqjuxctsprxipohudbbkrgxoz        ST00000    U2019081020190809     T         1-800T T9991Vmzkybip ACO                                                          
1000004293           Hvvvfidcqpzhiufouh                                          Amvgjsg                                 1954060625034 X Ave                                                                                                                                                          Xemyjxzlqjuxctsprxipohudbbkrgxoz        ST00000    U2019081220190816      N              NT9991Vmzkybip ACO                                                          
1000004293           Hvvvfidcqpzhiufouh                                          Amvgjsg                                 1954060625034 X Ave                                                                                                                                                          Xemyjxzlqjuxctsprxipohudbbkrgxoz        ST00000    U20190811201908141800  N             T T9991Vmzkybip ACO                                                          
1000004293           Hvvvfidcqpzhiufouh                                          Amvgjsg                                 1954060625034 X Ave                                                                                                                                                          Xemyjxzlqjuxctsprxipohudbbkrgxoz        ST00000    U20190811201908121800  N        1-800T T9991Vmzkybip ACO                                                          
1000004318           Fctcswdcxvtenxdxibwvexwleqqn                                Emttwihqj                               1948080424939 Cdodxdpffjkxhkzwoehzznkczbxthrphoee Dr                                                                                                                         Dztkvordrvcea                           ST00000    M2019081120190815      N             TNT9991Imvxhwflz ACO                                                         
1000004318           Fctcswdcxvtenxdxibwvexwleqqn                                Emttwihqj                               1948080424939 Cdodxdpffjkxhkzwoehzznkczbxthrphoee Dr                                                                                                                         Dztkvordrvcea                           ST00000    M20190810201908101800  Y             TNT9991Imvxhwflz ACO                                                         
1000004324           Dj                                                          Kzfccgmuojhidyuzm                       193903104674 Jhubqeupqfieccub Dr                                                                                                                                             Hnyrpxpbczufbiehibqwgnmqgo              ST00000    F20190810201908191800  N               T9991Gbpkxhuhpzspftpjnyeqkxrhobkxhy ACO                                    
1000004330           Ezvnqwtazuwjettxfrtsu                                       Nhcdlyx                                 1935011744601 Tequesuycdkbgsmzguzzpa Way                                                                                                                                     Tjujzllfbavbkwbty                       ST00000    M20190810201908121800  Y               T9991Tdmtc ACO                                                             
1000004330           Ezvnqwtazuwjettxfrtsu                                       Nhcdlyx                                 1935011744601 Tequesuycdkbgsmzguzzpa Way                                                                                                                                     Tjujzllfbavbkwbty                       ST00000    M2019081420190811               1-800 NT9991Tdmtc ACO                                                             
1000004343           N                                                           Hquqpoasokqvxhqaczpchlpieipsv           1946090625037 Iklrwnkwzhjaxez Blvd                                                                                                                                           Awuabtjhaqrmztchevxeeqqrpdkgwttjmrxui   ST00000    F20190814201908101800 TN        1-800  T9991Oqcfbkcocsfkp ACO                                                     
1000004370           Zbjtuekshybrxeznfvokfbhgrthot                               Guueuigcbifdaybdjrgri                   1934053038791 Yenashhawxfuodujjgcxjxptlcaevrpq Way                                                                                                                           Ffrjlckejp                              ST00000    U20190810201908141800                 NT9991Abachqlbgmasfdgsclrkm ACO                                             
1000004370           Zbjtuekshybrxeznfvokfbhgrthot                               Guueuigcbifdaybdjrgri                   1934053038791 Yenashhawxfuodujjgcxjxptlcaevrpq Way                                                                                                                           Ffrjlckejp                              ST00000    U2019081620190816      Y             TNT9991Abachqlbgmasfdgsclrkm ACO                                             
1000004404           Xxebvcvprnpbmw                                              Lrknf                                   1953112726804 Amnciachlevaojlyrpau Way                                                                                                                                       Dgkrpierkjrkixlutjehbnpatf              ST00000    U2019081520190811     TN        1-800 NT9991Dbzclwposbkhrwi ACO                                                   
1000004455           Ldgavnmoquxf                                                Cly                                     1950082910332 Mmxmtjytwyppewjculjouehorzmwsshfp Way                                                                                                                          Wailckcickvvfckxcvwbughqmx              ST00000    U20190810201908101800                TNT9991Ejuwfckmtluwousrjmfkyooawkjptmuvxdhdmhljmxuszxytoihn ACO              
1000004461           Orptfnhccmftvvakmepuoopiijzy                                Qidhy                                   195006136294 Pcidjjeqplblxlvkggq Dr                                                                                                                                          Rcpdwwocfhgeyufyidcutcvsvrilievdmmkz    ST00000    M2019081420190811               1-800  T9991Rmzafhiflxzlbbxrayqnvvvwmhrtprhcnlppzpdamucksjlbqxyycbjfinas ACO      
1000004461           Orptfnhccmftvvakmepuoopiijzy                                Qidhy                                   195006136294 Pcidjjeqplblxlvkggq Dr                                                                                                                                          Rcpdwwocfhgeyufyidcutcvsvrilievdmmkz    ST00000    M20190814201908161800 TY             T T9991Rmzafhiflxzlbbxrayqnvvvwmhrtprhcnlppzpdamucksjlbqxyycbjfinas ACO      
1000004461           Orptfnhccmftvvakmepuoopiijzy                                Qidhy                                   195006136294 Pcidjjeqplblxlvkggq Dr                                                                                                                                          Rcpdwwocfhgeyufyidcutcvsvrilievdmmkz    ST00000    M2019081320190814      Y        1-800 NT9991Rmzafhiflxzlbbxrayqnvvvwmhrtprhcnlppzpdamucksjlbqxyycbjfinas ACO      
1000004461           Orptfnhccmftvvakmepuoopiijzy                                Qidhy                                   195006136294 Pcidjjeqplblxlvkggq Dr                                                                                                                                          Rcpdwwocfhgeyufyidcutcvsvrilievdmmkz    ST00000    M20190816201908171800 T              TNT9991Rmzafhiflxzlbbxrayqnvvvwmhrtprhcnlppzpdamucksjlbqxyycbjfinas ACO      
1000004461           Orptfnhccmftvvakmepuoopiijzy                                Qidhy                                   195006136294 Pcidjjeqplblxlvkggq Dr                                                                                                                                          Rcpdwwocfhgeyufyidcutcvsvrilievdmmkz    ST00000    M2019081320190813               1-800  T9991Rmzafhiflxzlbbxrayqnvvvwmhrtprhcnlppzpdamucksjlbqxyycbjfinas ACO      
1000004511           Oqcgz                                                       Oiauvoroybftslsm                        1941050523132 Ncoruksniuhehzhsgvoenluttnwy St                                                                                                                                Uxtrgytkozrizkxubqdsarukq               ST00000    M2019081020190815      Y        1-800TNT9991Ilbbssigqwchmnfxewthahfugdfkubcfekrs ACO                              
1000004511           Oqcgz                                                       Oiauvoroybftslsm                        1941050523132 Ncoruksniuhehzhsgvoenluttnwy St                                                                                                                                Uxtrgytkozrizkxubqdsarukq               ST00000    M20190815201908111800 TY        1-800T T9991Ilbbssigqwchmnfxewthahfugdfkubcfekrs ACO                              
1000004541           Hallkssuftvgldloymrwhwvria                                  Lpc                                     1908041617902 Nkvatrhjxiq St                                                                                                                                                 Kkgpxbjieoewncrjnpkusztbavofiy          ST00000    U20190809201908121800 TY              NT9991Alxnhh ACO                                                            
1000004541           Hallkssuftvgldloymrwhwvria                                  Lpc                                     1908041617902 Nkvatrhjxiq St                                                                                                                                                 Kkgpxbjieoewncrjnpkusztbavofiy          ST00000    U2019081220190813      N        1-800T T9991Alxnhh ACO                                                            
1000020833           Jcxhufwakvpbtvvli                                           Ymtbvwpnw                               1936050220386 Zehsqjwbxgrsb Ave                                                                                                                                              S                                       ST00000    U20190815201908131800  N             T T9991Mveiewbvjoouusqhc ACO                                                 
1000020839           Roifihuzctvpiupttbolycnyrtqv                                Ikesrtmtdadg                            1913012136428 Xuxehkdgadlbpsqkppmfupspinszulzwiygmzzccqnv Way                                                                                                                Nklfptbbufi                             ST00000    F2019081020190812      Y               T9991Fgmmijosvpgzifdsmjziqbdnwujjlcmmnnwnlgrwul ACO                        
1000020839           Roifihuzctvpiupttbolycnyrtqv                                Ikesrtmtdadg                            1913012136428 Xuxehkdgadlbpsqkppmfupspinszulzwiygmzzccqnv Way                                                                                                                Nklfptbbufi                             ST00000    F20190811201908141800 T              TNT9991Fgmmijosvpgzifdsmjziqbdnwujjlcmmnnwnlgrwul ACO                        
1000020839           Roifihuzctvpiupttbolycnyrtqv                                Ikesrtmtdadg                            1913012136428 Xuxehkdgadlbpsqkppmfupspinszulzwiygmzzccqnv Way                                                                                                                Nklfptbbufi                             ST00000    F2019081120190815      Y              NT9991Fgmmijosvpgzifdsmjziqbdnwujjlcmmnnwnlgrwul ACO                        
1000020839           Roifihuzctvpiupttbolycnyrtqv                                Ikesrtmtdadg                            1913012136428 Xuxehkdgadlbpsqkppmfupspinszulzwiygmzzccqnv Way                                                                                                                Nklfptbbufi                             ST00000    F2019081120190816     TN              NT9991Fgmmijosvpgzifdsmjziqbdnwujjlcmmnnwnlgrwul ACO                        
1000020883           Rrar                                                        Pdtqzqlrfqxue                           19280725444 Rhhkicakgdyw Blvd                                                                                                                                                Pphepez                                 ST00000    M20190813201908151800 TY        1-800T T9991Ti ACO                                                                
1000020883           Rrar                                                        Pdtqzqlrfqxue                           19280725444 Rhhkicakgdyw Blvd                                                                                                                                                Pphepez                                 ST00000    M2019081220190814     TN        1-800 NT9991Ti ACO                                                                
1000020883           Rrar                                                        Pdtqzqlrfqxue                           19280725444 Rhhkicakgdyw Blvd                                                                                                                                                Pphepez                                 ST00000    M2019081420190814     TN             TNT9991Ti ACO                                                                
1000020894           Zkzufbhbpsylwvfpsuyj                                        Fskohcazmvfem                           1933060230776 Rgcgv Blvd                                                                                                                                                     Sqerokvelmvqlwm                         ST00000    M20190811201908091800 T         1-800TNT9991Jzpeygkyxeofbqipeaxdmjhiqhgpsznvwdvmnsrbwoowatysv ACO                 
1000020898           Bmwfssgbfcpibybqmfqdsmioltunh                               Ptaeqdeinetnaep                         191709044962 Zaqydefqritdhtdw St                                                                                                                                             Padhnduppoxefvpsozdiebytf               ST00000    U20190814201908151800 TN        1-800 NT9991Uoqsyojnuqrguarufknwtzfasspqmnttmffqelfg ACO                          
1000020922           Ioarnjwynlqxecykggjukbroqozez                               Vnllvrxsgbtjn                           1949102112923 Wvodzwzjoqfgs Way                                                                                                                                              Rlbdpaikn                               ST00000    M2019081120190812     TY        1-800T T9991Uvxffaqxceatnronrtofpjclhkkksyxcbsupxhkmxtgdbiq ACO                   
1000020922           Ioarnjwynlqxecykggjukbroqozez                               Vnllvrxsgbtjn                           1949102112923 Wvodzwzjoqfgs Way                                                                                                                                              Rlbdpaikn                               ST00000    M2019081420190812      N             TNT9991Uvxffaqxceatnronrtofpjclhkkksyxcbsupxhkmxtgdbiq ACO                   
1000020962           Ewdqxbovxwbwarojqrgxngeikclrw                               Notemceutpvmiym                         1911122427920 B Dr                                                                                                                                                           Vckkzmcrgfdqickooe                      ST00000    M20190815201908101800  N        1-800 NT9991Cjeznobyvpzjxaoc ACO                                                  
1000020962           Ewdqxbovxwbwarojqrgxngeikclrw                               Notemceutpvmiym                         1911122427920 B Dr                                                                                                                                                           Vckkzmcrgfdqickooe                      ST00000    M2019081020190819                      T9991Cjeznobyvpzjxaoc ACO                                                  
1000020962           Ewdqxbovxwbwarojqrgxngeikclrw                               Notemceutpvmiym                         1911122427920 B Dr                                                                                                                                                           Vckkzmcrgfdqickooe                      ST00000    M20190812201908151800           1-800 NT9991Cjeznobyvpzjxaoc ACO                                                  
1000020962           Ewdqxbovxwbwarojqrgxngeikclrw                               Notemceutpvmiym                         1911122427920 B Dr                                                                                                                                                           Vckkzmcrgfdqickooe                      ST00000    M20190809201908091800  Y               T9991Cjeznobyvpzjxaoc ACO                                                  
1000020962           Ewdqxbovxwbwarojqrgxngeikclrw                               Notemceutpvmiym                         1911122427920 B Dr                                                                                                                                                           Vckkzmcrgfdqickooe                      ST00000    M20190811201908121800  Y        1-800 NT9991Cjeznobyvpzjxaoc ACO                                                  
1000021048           Rtlwviwitzwjkwqw                                            Zzrm                                    19411014334 Mtmro Way                                                                                                                                                        Pfvkqourqbddhtluhfyhzxeeqpsrbecvocg     ST00000    F20190813201908101800 TN        1-800 NT9991Shrwbjcesgbewvremwigzsvewqqgnfkiqpkavvjvgxxtdsonqubkazhsjste ACO      
1000021086           Qhvuaainpmafstpoqts                                         Sgtvzrfbugslnalmvsxfoqwhbgtm            194410262199 Tixireflthimriwkfruxynjfmkb Ave                                                                                                                                 Cqkbwimlgadlgebyuw                      ST00000    U20190809201908111800 TN             TNT9991Dvedydbsnt ACO                                                        
1000021086           Qhvuaainpmafstpoqts                                         Sgtvzrfbugslnalmvsxfoqwhbgtm            194410262199 Tixireflthimriwkfruxynjfmkb Ave                                                                                                                                 Cqkbwimlgadlgebyuw                      ST00000    U2019081320190818               1-800  T9991Dvedydbsnt ACO                                                        
1000021102           Omwlkysrxtotxfn                                             Sgdxa                                   1910062210689 Rjdblwsr Dr                                                                                                                                                    Zdtmdh                                  ST00000    F20190815201908181800                  T9991Dtonnsgeshkacvmclbdslkkdeeurxtjpsgskmvzhcvcjwzidazir ACO              
1000021111           Bveouykuqiimoufqltidmpad                                    Bdpbsvimwxznyn                          1900112623512 Loebx Dr                                                                                                                                                       Guhmnsotmqejbrkwzgzhjatb                ST00000    F2019081320190815                    T T9991Lebdrzypcsiacvcamswkkbkfzysfpvpxrvntnghjktmouhsylqrw ACO              
1000004838           Gigqmlaftlpofwpigqdmf                                       Eyprtcinltanghrdbqeoam                  1934051617214 Oywlbv Ave                                                                                                                                                     Rtldqresdskuiespyaaennjswljduof         ST00000    F2019081020190811                     NT9992Rxeuqvcmktjnkawcexpczxbtxlpflbyuaf ACO                                
1000004851           Zgnvsflgdrnjdnyxn                                           Kfyhzga                                 1914061125859 Rsntcfdyqhr St                                                                                                                                                 Oletvdwbmvedorsivtep                    ST00000    F20190814201908091800 TN              NT9992Sbxzcphcepedffjqdfmirlwruyhaztigigdsrpulb ACO                         
1000004851           Zgnvsflgdrnjdnyxn                                           Kfyhzga                                 1914061125859 Rsntcfdyqhr St                                                                                                                                                 Oletvdwbmvedorsivtep                    ST00000    F2019081320190818               1-800  T9992Sbxzcphcepedffjqdfmirlwruyhaztigigdsrpulb ACO                         
1000004851           Zgnvsflgdrnjdnyxn                                           Kfyhzga                                 1914061125859 Rsntcfdyqhr St                                                                                                                                                 Oletvdwbmvedorsivtep                    ST00000    F20190812201908161800                  T9992Sbxzcphcepedffjqdfmirlwruyhaztigigdsrpulb ACO                         
1000004851           Zgnvsflgdrnjdnyxn                                           Kfyhzga                                 1914061125859 Rsntcfdyqhr St                                                                                                                                                 Oletvdwbmvedorsivtep                    ST00000    F2019081320190810      N               T9992Sbxzcphcepedffjqdfmirlwruyhaztigigdsrpulb ACO                         
1000004879           Ajxrtjgmwamqwoxjbqihw                                       Eqizmvuxxbfkcuujhquhqjxd                1924012422824 Ksl Ave                                                                                                                                                        Cvslibyghepjyzsfgyqbqvfxqgcoelwbgwabt   ST00000    F20190815201908131800 TN        1-800  T9992Hgdyofqohszgmdijoflgrhkgvywyxxduhldrrcogimxufqvp ACO                  
1000004879           Ajxrtjgmwamqwoxjbqihw                                       Eqizmvuxxbfkcuujhquhqjxd                1924012422824 Ksl Ave                                                                                                                                                        Cvslibyghepjyzsfgyqbqvfxqgcoelwbgwabt   ST00000    F20190811201908121800  N             T T9992Hgdyofqohszgmdijoflgrhkgvywyxxduhldrrcogimxufqvp ACO                  
1000004895           Dfusg                                                       Owzgrboukfhoccfoxhtmhulxuuqoz           1921030147329 Bzwxnogsqeppwpdeseqx Blvd                                                                                                                                      Mvbhnzbbuphga                           ST00000    U20190810201908171800  N              NT9992Ycduxgkvqdbfeoclpraewtngwpyuavdgcoowy ACO                             
1000004895           Dfusg                                                       Owzgrboukfhoccfoxhtmhulxuuqoz           1921030147329 Bzwxnogsqeppwpdeseqx Blvd                                                                                                                                      Mvbhnzbbuphga                           ST00000    U2019081220190818     T         1-800T T9992Ycduxgkvqdbfeoclpraewtngwpyuavdgcoowy ACO                             
1000084160           Abtmfjmhmmiwmhpybut                                         Udueduxvnqjjznkej                       1918040125033 Sloddmxlsakttvxqncmnytowl Dr                                                                                                                                   Kkhsycivcwztpuccwwtmubwgspndwcwrq       ST00000    U2019081220190817     TN        1-800TNT9992Manvxqxdhhslmzmzvrreewzojzeatzyvdlmnvbwexvbzsxexynuyjskodnafamsp ACO  
1000084160           Abtmfjmhmmiwmhpybut                                         Udueduxvnqjjznkej                       1918040125033 Sloddmxlsakttvxqncmnytowl Dr                                                                                                                                   Kkhsycivcwztpuccwwtmubwgspndwcwrq       ST00000    U20190812201908161800 TY        1-800TNT9992Manvxqxdhhslmzmzvrreewzojzeatzyvdlmnvbwexvbzsxexynuyjskodnafamsp ACO  
1000084160           Abtmfjmhmmiwmhpybut                                         Udueduxvnqjjznkej                       1918040125033 Sloddmxlsakttvxqncmnytowl Dr                                                                                                                                   Kkhsycivcwztpuccwwtmubwgspndwcwrq       ST00000    U20190809201908161800  Y             T T9992Manvxqxdhhslmzmzvrreewzojzeatzyvdlmnvbwexvbzsxexynuyjskodnafamsp ACO  
1000084175           Wm                                                          Muxlujbxczaxgwzkc                       1948011738483 Lmznkuulu Ave                                                                                                                                                  Ezwnsuieygihsimkxievzmhfxbdnxmpsox      ST00000    F20190816201908141800  N             T T9992Shpblecbwxjqlvvgvlmxuxbqkhmt ACO                                      
1000084175           Wm                                                          Muxlujbxczaxgwzkc                       1948011738483 Lmznkuulu Ave                                                                                                                                                  Ezwnsuieygihsimkxievzmhfxbdnxmpsox      ST00000    F20190813201908121800  N        1-800  T9992Shpblecbwxjqlvvgvlmxuxbqkhmt ACO                                      
1000084196           Vxt                                                         Vkqesyriqr                              1931011130918 Nowbkxzrefjuphmxsvsyiyq Way                                                                                                                                    Nqkpiwrwnqjjjpqqiigdmwvz                ST00000    U2019081620190811      N        1-800TNT9992Mvltskhwxphnxbpcwnydyqxyts ACO                                        
1000084196           Vxt                                                         Vkqesyriqr                              1931011130918 Nowbkxzrefjuphmxsvsyiyq Way                                                                                                                                    Nqkpiwrwnqjjjpqqiigdmwvz                ST00000    U20190812201908141800 TY               T9992Mvltskhwxphnxbpcwnydyqxyts ACO                                        
1000084196           Vxt                                                         Vkqesyriqr                              1931011130918 Nowbkxzrefjuphmxsvsyiyq Way                                                                                                                                    Nqkpiwrwnqjjjpqqiigdmwvz                ST00000    U2019081120190813      Y               T9992Mvltskhwxphnxbpcwnydyqxyts ACO                                        
1000084196           Vxt                                                         Vkqesyriqr                              1931011130918 Nowbkxzrefjuphmxsvsyiyq Way                                                                                                                                    Nqkpiwrwnqjjjpqqiigdmwvz                ST00000    U20190811201908121800  N        1-800TNT9992Mvltskhwxphnxbpcwnydyqxyts ACO                                        
1000099794           Coywbbigg                                                   Mjsujxvkgwaphlzonhixa                   1907070325926 Dbooqgmefdxhukkjidzdeyllusm St                                                                                                                                 Vvafcckohahlozchwinccxcotdlwswvgd       ST00000    F2019081420190810      Y        1-800T T9992Qmcqzvskwhiavuklfgaixfflbqvybourdzpombbtxlqhgqmfxmie ACO              
1000099805           W                                                           Yo                                      1902031530744 Qnywbcrfxbtdbyxdfcmntylvyiiwzfosbxqsk Dr                                                                                                                       Sfvjicffyiwhimmdd                       ST00000    M2019081020190818               1-800  T9992Agefrtoewhdejazmjzyhvwdddwumiltyenuhppitiipdhavlqmqdwywku ACO         
1000099805           W                                                           Yo                                      1902031530744 Qnywbcrfxbtdbyxdfcmntylvyiiwzfosbxqsk Dr                                                                                                                       Sfvjicffyiwhimmdd                       ST00000    M20190810201908121800 TN        1-800  T9992Agefrtoewhdejazmjzyhvwdddwumiltyenuhppitiipdhavlqmqdwywku ACO         
1000099805           W                                                           Yo                                      1902031530744 Qnywbcrfxbtdbyxdfcmntylvyiiwzfosbxqsk Dr                                                                                                                       Sfvjicffyiwhimmdd                       ST00000    M2019081620190814     TN        1-800 NT9992Agefrtoewhdejazmjzyhvwdddwumiltyenuhppitiipdhavlqmqdwywku ACO         
1000099805           W                                                           Yo                                      1902031530744 Qnywbcrfxbtdbyxdfcmntylvyiiwzfosbxqsk Dr                                                                                                                       Sfvjicffyiwhimmdd                       ST00000    M20190813201908131800  Y             T T9992Agefrtoewhdejazmjzyhvwdddwumiltyenuhppitiipdhavlqmqdwywku ACO         
1000099807           Xwhcbqucf                                                   Owkbolldgvwin                           1936122316590 Xwxkrfqedhrnyfxyjshtsepmcrbyomddypmfg Blvd                                                                                                                     Ytgjnowglrpiziakwyg                     ST00000    U2019081520190815               1-800 NT9992Ooxeyjtklcdzjigffbtorvzgzjlumrnmxsvygwzmguyacumzbdnfqfqbu ACO         
1000099807           Xwhcbqucf                                                   Owkbolldgvwin                           1936122316590 Xwxkrfqedhrnyfxyjshtsepmcrbyomddypmfg Blvd                                                                                                                     Ytgjnowglrpiziakwyg                     ST00000    U2019081520190811     T         1-800TNT9992Ooxeyjtklcdzjigffbtorvzgzjlumrnmxsvygwzmguyacumzbdnfqfqbu ACO         
1000099807           Xwhcbqucf                                                   Owkbolldgvwin                           1936122316590 Xwxkrfqedhrnyfxyjshtsepmcrbyomddypmfg Blvd                                                                                                                     Ytgjnowglrpiziakwyg                     ST00000    U20190813201908171800                TNT9992Ooxeyjtklcdzjigffbtorvzgzjlumrnmxsvygwzmguyacumzbdnfqfqbu ACO         
1000099807           Xwhcbqucf                                                   Owkbolldgvwin                           1936122316590 Xwxkrfqedhrnyfxyjshtsepmcrbyomddypmfg Blvd                                                                                                                     Ytgjnowglrpiziakwyg                     ST00000    U2019081420190815               1-800T T9992Ooxeyjtklcdzjigffbtorvzgzjlumrnmxsvygwzmguyacumzbdnfqfqbu ACO         
1000099807           Xwhcbqucf                                                   Owkbolldgvwin                           1936122316590 Xwxkrfqedhrnyfxyjshtsepmcrbyomddypmfg Blvd                                                                                                                     Ytgjnowglrpiziakwyg                     ST00000    U2019081220190817               1-800  T9992Ooxeyjtklcdzjigffbtorvzgzjlumrnmxsvygwzmguyacumzbdnfqfqbu ACO         
1000099831           Yzjqiopccgtzilcp                                            Cajfvnmugkygyrckgojoidohtpoc            1925040613340 Gnoawaawpxqy Ave                                                                                                                                               Kbnwhlrxbgezxcvax                       ST00000    F2019081420190809      Y        1-800T T9992Qdypv ACO                                                             
1000099831           Yzjqiopccgtzilcp                                            Cajfvnmugkygyrckgojoidohtpoc            1925040613340 Gnoawaawpxqy Ave                                                                                                                                               Kbnwhlrxbgezxcvax                       ST00000    F2019081120190819     T              TNT9992Qdypv ACO                                                             
1000099855           Iazhisbnnmpmg                                               Qmcmbbrmcwjacoiz                        1950030227732 Drobndvoogvkbirbdzswrkkkjassrwnhydv St                                                                                                                         Jwpguwzkgngprygwhj                      ST00000    M20190811201908171800  N        1-800TNT9992Pdcttzsliapctugear ACO                                                
1000099856           Mlnyyqaocjqcunyexlxxbhxxi                                   Eyejawiyha                              1928062246393 Ycrvhbohalfanimoxtykacawhpotdakurvzxc Blvd                                                                                                                     Jtk                                     ST00000    M2019081020190812                    TNT9992Ftxgpcwrwmmgpdgmdoryi ACO                                             
1000099856           Mlnyyqaocjqcunyexlxxbhxxi                                   Eyejawiyha                              1928062246393 Ycrvhbohalfanimoxtykacawhpotdakurvzxc Blvd                                                                                                                     Jtk                                     ST00000    M20190813201908111800  N             TNT9992Ftxgpcwrwmmgpdgmdoryi ACO                                             
1000099856           Mlnyyqaocjqcunyexlxxbhxxi                                   Eyejawiyha                              1928062246393 Ycrvhbohalfanimoxtykacawhpotdakurvzxc Blvd                                                                                                                     Jtk                                     ST00000    M2019081120190817               1-800TNT9992Ftxgpcwrwmmgpdgmdoryi ACO                                             
1000099856           Mlnyyqaocjqcunyexlxxbhxxi                                   Eyejawiyha                              1928062246393 Ycrvhbohalfanimoxtykacawhpotdakurvzxc Blvd                                                                                                                     Jtk                                     ST00000    M2019081020190817     T         1-800 NT9992Ftxgpcwrwmmgpdgmdoryi ACO                                             
1000099864           Czvpeyqd                                                    X                                       191306163185 Ccyy Blvd                                                                                                                                                       Uptjkrqbirngaisyfgrpzprebnzacyotqz      ST00000    M20190809201908101800           1-800 NT9992Dszbicgfljsr ACO                                                      
1000099864           Czvpeyqd                                                    X                                       191306163185 Ccyy Blvd                                                                                                                                                       Uptjkrqbirngaisyfgrpzprebnzacyotqz      ST00000    M20190810201908171800  Y             T T9992Dszbicgfljsr ACO                                                      
1000099868           Zdppmjzhbgud                                                Ocolylqfbj                              1924112549328 Oqvoudaxawnmlcxyuwcholqnhcie Blvd                                                                                                                              Zuxvgffuhshwsbrqst                      ST00000    M2019081420190819     T               NT9992Rcwadskzybewmaidlgvxggxhqnsjzxzyszzkz ACO                             
1000099868           Zdppmjzhbgud                                                Ocolylqfbj                              1924112549328 Oqvoudaxawnmlcxyuwcholqnhcie Blvd                                                                                                                              Zuxvgffuhshwsbrqst                      ST00000    M2019080920190817     T              T T9992Rcwadskzybewmaidlgvxggxhqnsjzxzyszzkz ACO                             
1000099868           Zdppmjzhbgud                                                Ocolylqfbj                              1924112549328 Oqvoudaxawnmlcxyuwcholqnhcie Blvd                                                                                                                              Zuxvgffuhshwsbrqst                      ST00000    M2019081220190814     TY        1-800T T9992Rcwadskzybewmaidlgvxggxhqnsjzxzyszzkz ACO                             
1000099868           Zdppmjzhbgud                                                Ocolylqfbj                              1924112549328 Oqvoudaxawnmlcxyuwcholqnhcie Blvd                                                                                                                              Zuxvgffuhshwsbrqst                      ST00000    M2019081320190811     TN               T9992Rcwadskzybewmaidlgvxggxhqnsjzxzyszzkz ACO                             
1000099868           Zdppmjzhbgud                                                Ocolylqfbj                              1924112549328 Oqvoudaxawnmlcxyuwcholqnhcie Blvd                                                                                                                              Zuxvgffuhshwsbrqst                      ST00000    M20190809201908131800  N        1-800T T9992Rcwadskzybewmaidlgvxggxhqnsjzxzyszzkz ACO                             
1000099902           Qbtvjinfvtdpkvrozvlqguvf                                    Trbcatjqmymhwmlha                       1931013039492 Tudfkukvhmxqwspgzsesfzeoefwwengaynu Dr                                                                                                                         Asqhfvadvjbvfyx                         ST00000    U2019081120190819      Y             TNT9992Bqtfliwilxqgtgsqtmy ACO                                               
1000099902           Qbtvjinfvtdpkvrozvlqguvf                                    Trbcatjqmymhwmlha                       1931013039492 Tudfkukvhmxqwspgzsesfzeoefwwengaynu Dr                                                                                                                         Asqhfvadvjbvfyx                         ST00000    U20190812201908151800                T T9992Bqtfliwilxqgtgsqtmy ACO                                               
1000099902           Qbtvjinfvtdpkvrozvlqguvf                                    Trbcatjqmymhwmlha                       1931013039492 Tudfkukvhmxqwspgzsesfzeoefwwengaynu Dr                                                                                                                         Asqhfvadvjbvfyx                         ST00000    U2019081220190814                      T9992Bqtfliwilxqgtgsqtmy ACO                                               
1000099909           Onjawmvsrqkjiuidgrzzkcc                                     Edjpuyvnopggviuwoez                     1937052726292 Btuetgihpuzadxvxtbypvdcrkszn Dr                                                                                                                                Sce                                     ST00000    M20190812201908121800           1-800TNT9992Rodzqeyzfewfcuezjdzsjhemmgmaphxetkvoiqzacdpossqacn ACO                
1000099909           Onjawmvsrqkjiuidgrzzkcc                                     Edjpuyvnopggviuwoez                     1937052726292 Btuetgihpuzadxvxtbypvdcrkszn Dr                                                                                                                                Sce                                     ST00000    M20190809201908151800 T               NT9992Rodzqeyzfewfcuezjdzsjhemmgmaphxetkvoiqzacdpossqacn ACO                
1000099920           Gbigbsqxesoqpirzabzobbeevkscb                               Dbrbspyovpiutgz                         190102137506 Fqqucruwol Dr                                                                                                                                                   Qajzxyrley                              ST00000    F2019081320190813      N        1-800T T9992Nhbtkfsdazrf ACO                                                      
1000099920           Gbigbsqxesoqpirzabzobbeevkscb                               Dbrbspyovpiutgz                         190102137506 Fqqucruwol Dr                                                                                                                                                   Qajzxyrley                              ST00000    F2019081120190812     TN               T9992Nhbtkfsdazrf ACO                                                      
1000099920           Gbigbsqxesoqpirzabzobbeevkscb                               Dbrbspyovpiutgz                         190102137506 Fqqucruwol Dr                                                                                                                                                   Qajzxyrley                              ST00000    F2019081320190818     TN             T T9992Nhbtkfsdazrf ACO                                                      
1000099920           Gbigbsqxesoqpirzabzobbeevkscb                               Dbrbspyovpiutgz                         190102137506 Fqqucruwol Dr                                                                                                                                                   Qajzxyrley                              ST00000    F20190815201908101800 TY              NT9992Nhbtkfsdazrf ACO                                                      
1000099927           Porcyqyy                                                    Pevjazfjgmkvyapymsxcuvcmfbyg            190105163538 Qawv Way                                                                                                                                                        Bfplbffrtpgmxoacvuuylegfa               ST00000    F20190812201908101800                  T9992Pcxrpirmrvxwjbmcug ACO                                                
1000099949           Kekpeybwkwgtzzkxqqmsvh                                      Gbhvqbubtbckz                           1941062436009 Xhsjiyyljjgycotirzklojzmgrpaeosgyaxxvqz Blvd                                                                                                                   Uiwarkjhncvdshvbmfmxnyf                 ST00000    F2019081420190816     TN        1-800T T9992Iamdrifvhkockthckdmgtadpgjqzexskfxjxhbileyiywhxwvyuvrvjmrodir ACO     
1000099956           Nwfebmynqozzwyzhvskbmrhmapc                                 Hcl                                     1922071631295 Uvklqmohtgukrqvjq Way                                                                                                                                          Liirdnbhntpsjvdiqxkqkoikicaca           ST00000    M2019081220190815      N             TNT9992Kfrjozufwkngexqzm ACO                                                 
1000099956           Nwfebmynqozzwyzhvskbmrhmapc                                 Hcl                                     1922071631295 Uvklqmohtgukrqvjq Way                                                                                                                                          Liirdnbhntpsjvdiqxkqkoikicaca           ST00000    M2019081120190813      Y        1-800 NT9992Kfrjozufwkngexqzm ACO                                                 
1000099956           Nwfebmynqozzwyzhvskbmrhmapc                                 Hcl                                     1922071631295 Uvklqmohtgukrqvjq Way                                                                                                                                          Liirdnbhntpsjvdiqxkqkoikicaca           ST00000    M20190814201908101800  N        1-800T T9992Kfrjozufwkngexqzm ACO                                                 
1000099956           Nwfebmynqozzwyzhvskbmrhmapc                                 Hcl                                     1922071631295 Uvklqmohtgukrqvjq Way                                                                                                                                          Liirdnbhntpsjvdiqxkqkoikicaca           ST00000    M20190816201908091800           1-800 NT9992Kfrjozufwkngexqzm ACO                                                 
1000099956           Nwfebmynqozzwyzhvskbmrhmapc                                 Hcl                                     1922071631295 Uvklqmohtgukrqvjq Way                                                                                                                                          Liirdnbhntpsjvdiqxkqkoikicaca           ST00000    M2019081220190818     T              TNT9992Kfrjozufwkngexqzm ACO                                                 
1000099989           Xqqulnmjyytkjaogtau                                         Qyenswokgttsmadkqyzwoiwuj               193605211640 Fbhvwrqjpnxyhq Dr                                                                                                                                               Bxzqovhbbgqtfoexschszwnkcpzngxxjnua     ST00000    U2019081220190815     TY              NT9992Cwjmjnhsjzsvbbjjinuzaqlbeftzuctwi ACO                                 
1000099989           Xqqulnmjyytkjaogtau                                         Qyenswokgttsmadkqyzwoiwuj               193605211640 Fbhvwrqjpnxyhq Dr                                                                                                                                               Bxzqovhbbgqtfoexschszwnkcpzngxxjnua     ST00000    U20190814201908181800  Y        1-800  T9992Cwjmjnhsjzsvbbjjinuzaqlbeftzuctwi ACO                                 
1000099989           Xqqulnmjyytkjaogtau                                         Qyenswokgttsmadkqyzwoiwuj               193605211640 Fbhvwrqjpnxyhq Dr                                                                                                                                               Bxzqovhbbgqtfoexschszwnkcpzngxxjnua     ST00000    U20190814201908181800 TN        1-800T T9992Cwjmjnhsjzsvbbjjinuzaqlbeftzuctwi ACO                                 
1000099992           U                                                           Hgbmtbdjnouxefevnk                      1925040815973 Jkylklbgoriubwjpsjpidcboaupavujh Ave                                                                                                                           Nmalwdgzxjdmzmvwdqozjmwlitektt          ST00000    M2019081020190817               1-800TNT9992Dtqshkxxesrcnwagbgwrkrqkxtncuptjjcrkhmjovkjfoepbfd ACO                
1000099992           U                                                           Hgbmtbdjnouxefevnk                      1925040815973 Jkylklbgoriubwjpsjpidcboaupavujh Ave                                                                                                                           Nmalwdgzxjdmzmvwdqozjmwlitektt          ST00000    M2019081020190814               1-800T T9992Dtqshkxxesrcnwagbgwrkrqkxtncuptjjcrkhmjovkjfoepbfd ACO                
1000099992           U                                                           Hgbmtbdjnouxefevnk                      1925040815973 Jkylklbgoriubwjpsjpidcboaupavujh Ave                                                                                                                           Nmalwdgzxjdmzmvwdqozjmwlitektt          ST00000    M2019081120190818      Y        1-800TNT9992Dtqshkxxesrcnwagbgwrkrqkxtncuptjjcrkhmjovkjfoepbfd ACO                
1000099992           U                                                           Hgbmtbdjnouxefevnk                      1925040815973 Jkylklbgoriubwjpsjpidcboaupavujh Ave                                                                                                                           Nmalwdgzxjdmzmvwdqozjmwlitektt          ST00000    M20190813201908151800                T T9992Dtqshkxxesrcnwagbgwrkrqkxtncuptjjcrkhmjovkjfoepbfd ACO                
1000099992           U                                                           Hgbmtbdjnouxefevnk                      1925040815973 Jkylklbgoriubwjpsjpidcboaupavujh Ave                                                                                                                           Nmalwdgzxjdmzmvwdqozjmwlitektt          ST00000    M20190816201908181800                  T9992Dtqshkxxesrcnwagbgwrkrqkxtncuptjjcrkhmjovkjfoepbfd ACO                
1000000000           Wwivgkjoocmqvrhothgo                                        X                                       1912080942801 Syj Ave                                                                                                                                                        Librpkvkcrsz                            ST00000    U2019081320190811     T               NT9993Omfbifniezrktweyvziccwizejznzsqpkwqvqtrdwxbtjrpwnyeqd ACO             
1000000003           Zacklwmb                                                    Ugeyhdxgtrj                             1927111333015 Xdbhojqifoypmnf Ave                                                                                                                                            Hwsnrqsoknrdjfq                         ST00000    U2019081620190814                    TNT9993Zmrrqwflhiqvdglhzbsqb ACO                                             
1000000003           Zacklwmb                                                    Ugeyhdxgtrj                             1927111333015 Xdbhojqifoypmnf Ave                                                                                                                                            Hwsnrqsoknrdjfq                         ST00000    U20190812201908111800 TN        1-800  T9993Zmrrqwflhiqvdglhzbsqb ACO                                             
1000000008           Ctzf                                                        Ukhgrvellizkp                           1920040433029 Jnogbuesebkkjnwrpsmhrtpfmxcgxundbmgab Blvd                                                                                                                     Zqblakafsppacihfjezjpczkvg              ST00000    M20190811201908091800 TY             TNT9993Mgyvibpmllafakjcuhuxwfqkrcpateijxwinpuljucnjslyqpyivymoffwkkbif ACO   
1000000008           Ctzf                                                        Ukhgrvellizkp                           1920040433029 Jnogbuesebkkjnwrpsmhrtpfmxcgxundbmgab Blvd                                                                                                                     Zqblakafsppacihfjezjpczkvg              ST00000    M2019081120190814     T              T T9993Mgyvibpmllafakjcuhuxwfqkrcpateijxwinpuljucnjslyqpyivymoffwkkbif ACO   
1000000008           Ctzf                                                        Ukhgrvellizkp                           1920040433029 Jnogbuesebkkjnwrpsmhrtpfmxcgxundbmgab Blvd                                                                                                                     Zqblakafsppacihfjezjpczkvg              ST00000    M2019081220190814     T         1-800T T9993Mgyvibpmllafakjcuhuxwfqkrcpateijxwinpuljucnjslyqpyivymoffwkkbif ACO   
1000000008           Ctzf                                                        Ukhgrvellizkp                           1920040433029 Jnogbuesebkkjnwrpsmhrtpfmxcgxundbmgab Blvd                                                                                                                     Zqblakafsppacihfjezjpczkvg              ST00000    M2019081420190814     T         1-800  T9993Mgyvibpmllafakjcuhuxwfqkrcpateijxwinpuljucnjslyqpyivymoffwkkbif ACO   
1000000034           Ygc                                                         Oyszhvmjgippgrvonuicfguk                1923031244393 Vaxqzclhqllsttpdvransslvurfxdlsidkozu Blvd                                                                                                                     Bvfekjjjvya                             ST00000    M2019081020190816               1-800  T9993Tpwpoavr ACO                                                          
1000000034           Ygc                                                         Oyszhvmjgippgrvonuicfguk                1923031244393 Vaxqzclhqllsttpdvransslvurfxdlsidkozu Blvd                                                                                                                     Bvfekjjjvya                             ST00000    M20190812201908161800 T                T9993Tpwpoavr ACO                                                          
1000022683           Bwtfjletnehrtcaluwrtrdbiwimy                                Rmwflqtzm                               1937093031654 Nzoajuooyxidwccgdcwptzdnrj Ave                                                                                                                                 Qtqlpmibcagkmspctkzkxbkhfcjqby          ST00000    M2019081520190813     TN             T T9993Aqcxglqqyllpdjzlkuajzzbkcfaqdybvplyvfzlzrc ACO                        
1000022683           Bwtfjletnehrtcaluwrtrdbiwimy                                Rmwflqtzm                               1937093031654 Nzoajuooyxidwccgdcwptzdnrj Ave                                                                                                                                 Qtqlpmibcagkmspctkzkxbkhfcjqby          ST00000    M2019080920190819               1-800 NT9993Aqcxglqqyllpdjzlkuajzzbkcfaqdybvplyvfzlzrc ACO                        
1000022683           Bwtfjletnehrtcaluwrtrdbiwimy                                Rmwflqtzm                               1937093031654 Nzoajuooyxidwccgdcwptzdnrj Ave                                                                                                                                 Qtqlpmibcagkmspctkzkxbkhfcjqby          ST00000    M20190812201908131800           1-800TNT9993Aqcxglqqyllpdjzlkuajzzbkcfaqdybvplyvfzlzrc ACO                        
1000022683           Bwtfjletnehrtcaluwrtrdbiwimy                                Rmwflqtzm                               1937093031654 Nzoajuooyxidwccgdcwptzdnrj Ave                                                                                                                                 Qtqlpmibcagkmspctkzkxbkhfcjqby          ST00000    M20190812201908151800 T         1-800T T9993Aqcxglqqyllpdjzlkuajzzbkcfaqdybvplyvfzlzrc ACO                        
1000022691           H                                                           Jwsvuxgepqidlwuevnwv                    1949010435046 Or Dr                                                                                                                                                          Gxhfiwkrulzinpvekz                      ST00000    U20190815201908101800  N             T T9993Uawnfynobduivxfbpcauguerhkfszzjx ACO                                  
1000026072           Vghlqwncqhqcg                                               Gxzkzmjfyu                              190010242709 Glfabwqx Ave                                                                                                                                                    Spwrzkedcyehfrqhvxp                     ST00000    F20190813201908131800 T               NT9993Rxcliiczxjvidoafqqn ACO                                               
1000026072           Vghlqwncqhqcg                                               Gxzkzmjfyu                              190010242709 Glfabwqx Ave                                                                                                                                                    Spwrzkedcyehfrqhvxp                     ST00000    F2019081420190817      N        1-800 NT9993Rxcliiczxjvidoafqqn ACO                                               
1000026072           Vghlqwncqhqcg                                               Gxzkzmjfyu                              190010242709 Glfabwqx Ave                                                                                                                                                    Spwrzkedcyehfrqhvxp                     ST00000    F2019081420190809      N        1-800T T9993Rxcliiczxjvidoafqqn ACO                                               
1000026072           Vghlqwncqhqcg                                               Gxzkzmjfyu                              190010242709 Glfabwqx Ave                                                                                                                                                    Spwrzkedcyehfrqhvxp                     ST00000    F2019081220190815      Y               T9993Rxcliiczxjvidoafqqn ACO                                               
1000026075           Tnlyx                                                       Prbxkcqjjdhjf                           1949051930239 Aohhymwuqifoqdawokud Dr                                                                                                                                        Darxo                                   ST00000    U2019081620190816               1-800T T9993Vljrojckunzxrafwscrfhnteftdgrcauwzy ACO                               
1000026075           Tnlyx                                                       Prbxkcqjjdhjf                           1949051930239 Aohhymwuqifoqdawokud Dr                                                                                                                                        Darxo                                   ST00000    U20190812201908151800 TN             T T9993Vljrojckunzxrafwscrfhnteftdgrcauwzy ACO                               
1000026077           Yyjjlgyvd                                                   Ofdxa                                   1952082010152 Cwrlbgqxlzcecvtzjyfdfmegajydiib Dr                                                                                                                             Damvvxdzgtusahpkheroqvksmyvhnddgwrttbsm ST00000    F20190813201908121800 TN             T T9993Jtnsxowvukhijwwhxopuzutyroouyzfstvdcjr ACO                            
1000026096           Kipemknymxyld                                               Ssgrqma                                 1928050726624 Zabirhatzpnyenlhcdyrreis Blvd                                                                                                                                  Cefaizlxcfbuqrsouh                      ST00000    M20190812201908141800 TN        1-800  T9993Stgeyrghzzmofplfnytfqgvzvtfbsrlrlldyaltcxueoebbidhuigualusrmdfyo ACO  
1000026106           Cvqpnlv                                                     Kudpuxmytjygtyxytrybawofaxd             1945051912555 Blfvrxygetu Ave                                                                                                                                                Fqzdgftklfiiabaxoa                      ST00000    M2019081520190811     TN              NT9993Ksasrifkahilpcotosdbxboxkwe ACO                                       
1000026111           Kgdewecwjhnsdonevvgmhjbhcuy                                 Ujcrcyoqzzpqbpdpsfocrsqgus              1924052042749 Ttkasxxzlbjqqd Way                                                                                                                                             Sodvfnv                                 ST00000    U20190812201908121800 TY             TNT9993Slrtojhuhukufuh ACO                                                   
1000026126           Qn                                                          Hsebmiasrtcfnghowzrewfhk                1911082410018 Gqxcavnkzvdaburzeh St                                                                                                                                          Lsshqqijtiiyyhx                         ST00000    U20190812201908111800  Y             TNT9993Hwjjbjzfvdjtsecwqivzddykyfiiupiyxctnqlonmcdowbztmtvojbgn ACO          
1000026127           Hxog                                                        Bifsvtgynlsqegnssxldikcwoxi             1917031532020 Xfpmoybxsmglobcoddiivojj Dr                                                                                                                                    Hqdjjszutgiqfawolnyprrp                 ST00000    M2019081320190818      N             TNT9993Aiyuavmmsiwvvyojlojdsicbgqgiipinervppjsfnztcd ACO                     
1000026127           Hxog                                                        Bifsvtgynlsqegnssxldikcwoxi             1917031532020 Xfpmoybxsmglobcoddiivojj Dr                                                                                                                                    Hqdjjszutgiqfawolnyprrp                 ST00000    M20190811201908161800  N             T T9993Aiyuavmmsiwvvyojlojdsicbgqgiipinervppjsfnztcd ACO                     
1000026132           Mutme                                                       Nvducseoqlqrgwqrrlpoftfkmce             1937011138773 Ltjzlwkqtxjfhmllylhkfimrzksclhiwslnskmnitk Dr                                                                                                                  Bpjuzovrljzdyun                         ST00000    M20190812201908131800  Y             TNT9993Nmlvmhtfnybrttlusjahbvqsujojehecldhbqvkqiq ACO                        
1000026132           Mutme                                                       Nvducseoqlqrgwqrrlpoftfkmce             1937011138773 Ltjzlwkqtxjfhmllylhkfimrzksclhiwslnskmnitk Dr                                                                                                                  Bpjuzovrljzdyun                         ST00000    M2019081020190819      Y        1-800 NT9993Nmlvmhtfnybrttlusjahbvqsujojehecldhbqvkqiq ACO                        
1000026132           Mutme                                                       Nvducseoqlqrgwqrrlpoftfkmce             1937011138773 Ltjzlwkqtxjfhmllylhkfimrzksclhiwslnskmnitk Dr                                                                                                                  Bpjuzovrljzdyun                         ST00000    M20190815201908131800 TN        1-800TNT9993Nmlvmhtfnybrttlusjahbvqsujojehecldhbqvkqiq ACO                        
1000026132           Mutme                                                       Nvducseoqlqrgwqrrlpoftfkmce             1937011138773 Ltjzlwkqtxjfhmllylhkfimrzksclhiwslnskmnitk Dr                                                                                                                  Bpjuzovrljzdyun                         ST00000    M2019080920190818     TY        1-800T T9993Nmlvmhtfnybrttlusjahbvqsujojehecldhbqvkqiq ACO                        
1000026132           Mutme                                                       Nvducseoqlqrgwqrrlpoftfkmce             1937011138773 Ltjzlwkqtxjfhmllylhkfimrzksclhiwslnskmnitk Dr                                                                                                                  Bpjuzovrljzdyun                         ST00000    M20190809201908131800  N               T9993Nmlvmhtfnybrttlusjahbvqsujojehecldhbqvkqiq ACO                        
1000026153           Xnddurrjtpkhmzjpicgb                                        Tenmpjojirqgbjyzq                       1948082843772 Ihmouevkcclljhpynoyhvsjoxgztvyo St                                                                                                                             Wzfiuovxtywas                           ST00000    M20190814201908171800  N              NT9993Xzjfso ACO                                                            
1000026156           Hbiwxpwuceqcntwteiugchkj                                    Psmkgpginlv                             1915031942493 Rtoskmyvruxabipw Ave                                                                                                                                           Usqgexioe                               ST00000    F20190812201908091800 TY             TNT9993Lgaywezpwrovjijxzednnauhvyxopghlyecqyrjr ACO                          
1000026156           Hbiwxpwuceqcntwteiugchkj                                    Psmkgpginlv                             1915031942493 Rtoskmyvruxabipw Ave                                                                                                                                           Usqgexioe                               ST00000    F20190812201908121800  N        1-800TNT9993Lgaywezpwrovjijxzednnauhvyxopghlyecqyrjr ACO                          
1000026156           Hbiwxpwuceqcntwteiugchkj                                    Psmkgpginlv                             1915031942493 Rtoskmyvruxabipw Ave                                                                                                                                           Usqgexioe                               ST00000    F2019081520190819     TN             TNT9993Lgaywezpwrovjijxzednnauhvyxopghlyecqyrjr ACO                          
1000026156           Hbiwxpwuceqcntwteiugchkj                                    Psmkgpginlv                             1915031942493 Rtoskmyvruxabipw Ave                                                                                                                                           Usqgexioe                               ST00000    F20190809201908181800  N             T T9993Lgaywezpwrovjijxzednnauhvyxopghlyecqyrjr ACO                          
1000026168           Socaqqhivqlszpzmfzjn                                        Smrxhuxxdgnfmdeoehxikqdkj               1949080949762 Ydceymfagnmhvdfbozpzzjq Blvd                                                                                                                                   Xbisobfgpfmcsungjlgmmzdjogtbsnapfc      ST00000    F20190811201908191800  Y        1-800T T9993Bvicrzfznwsfkirsfirnletrrjwlixzowvuayubwlzhidrpbg ACO                 
1000026168           Socaqqhivqlszpzmfzjn                                        Smrxhuxxdgnfmdeoehxikqdkj               1949080949762 Ydceymfagnmhvdfbozpzzjq Blvd                                                                                                                                   Xbisobfgpfmcsungjlgmmzdjogtbsnapfc      ST00000    F20190810201908191800 TY        1-800 NT9993Bvicrzfznwsfkirsfirnletrrjwlixzowvuayubwlzhidrpbg ACO                 
1000026168           Socaqqhivqlszpzmfzjn                                        Smrxhuxxdgnfmdeoehxikqdkj               1949080949762 Ydceymfagnmhvdfbozpzzjq Blvd                                                                                                                                   Xbisobfgpfmcsungjlgmmzdjogtbsnapfc      ST00000    F2019081520190810     T         1-800T T9993Bvicrzfznwsfkirsfirnletrrjwlixzowvuayubwlzhidrpbg ACO                 
1000026177           Lliacvkzabbmskljhdd                                         Cjpurgkurqa                             1927022119595 Qowdqpxyjl Ave                                                                                                                                                 Nuakbnrommcykyhhnxvttumjeifivvwf        ST00000    F20190811201908101800 TY        1-800 NT9993Rssntkrtxocpgssetgbdysgyxhtyxf ACO                                    
1000026177           Lliacvkzabbmskljhdd                                         Cjpurgkurqa                             1927022119595 Qowdqpxyjl Ave                                                                                                                                                 Nuakbnrommcykyhhnxvttumjeifivvwf        ST00000    F2019081220190819     TN        1-800  T9993Rssntkrtxocpgssetgbdysgyxhtyxf ACO                                    
1000026198           Xdszbys                                                     Lv                                      190103219354 Mnl Way                                                                                                                                                         Qbzcdhyzwlhxpfgcpailhrrkxmzubmtjsjztzdj ST00000    M20190811201908171800 T         1-800T T9993Jpdlqmlchncihgngilejnlj ACO                                           
1000026198           Xdszbys                                                     Lv                                      190103219354 Mnl Way                                                                                                                                                         Qbzcdhyzwlhxpfgcpailhrrkxmzubmtjsjztzdj ST00000    M20190810201908181800                T T9993Jpdlqmlchncihgngilejnlj ACO                                           
1000026198           Xdszbys                                                     Lv                                      190103219354 Mnl Way                                                                                                                                                         Qbzcdhyzwlhxpfgcpailhrrkxmzubmtjsjztzdj ST00000    M2019081420190819     TY        1-800  T9993Jpdlqmlchncihgngilejnlj ACO                                           
1000026198           Xdszbys                                                     Lv                                      190103219354 Mnl Way                                                                                                                                                         Qbzcdhyzwlhxpfgcpailhrrkxmzubmtjsjztzdj ST00000    M2019081120190816     T         1-800TNT9993Jpdlqmlchncihgngilejnlj ACO                                           
1000026212           Ptikllvdctyscaxfqanqfnhgbieft                               Vhzrgyqdslxjltdtqwxu                    193010011272 Sqyhyrfijkidwpgwuhbbvilpszz Ave                                                                                                                                 Uvnzbacjqexjqhfilp                      ST00000    F20190816201908121800 T         1-800 NT9993Pyuefikmyyxiacqymlsagpgmlijaewwjajnvovoifftydmqbih ACO                
1000026212           Ptikllvdctyscaxfqanqfnhgbieft                               Vhzrgyqdslxjltdtqwxu                    193010011272 Sqyhyrfijkidwpgwuhbbvilpszz Ave                                                                                                                                 Uvnzbacjqexjqhfilp                      ST00000    F20190814201908151800 T              T T9993Pyuefikmyyxiacqymlsagpgmlijaewwjajnvovoifftydmqbih ACO                
1000026382           R                                                           Erwxfhpbmwjawrc                         1914040541824 Ygqzjhz Ave                                                                                                                                                    Mawrrrepv                               ST00000    M20190810201908171800 TN        1-800  T9993Irxcmgbohygvtithhueshngtvmxyqrxrgxcluutpijjeyu ACO                    
1000026382           R                                                           Erwxfhpbmwjawrc                         1914040541824 Ygqzjhz Ave                                                                                                                                                    Mawrrrepv                               ST00000    M20190810201908121800 T                T9993Irxcmgbohygvtithhueshngtvmxyqrxrgxcluutpijjeyu ACO                    
1000026385           Ribkdvns                                                    F                                       1914033143743 Oaxbbzusurodeqnafffrnbkmpgkotwnjlhgm Dr                                                                                                                        Nxnbxkptqrehpwrypcjpzgutmwkxwvkshnq     ST00000    U20190814201908111800  N        1-800TNT9993Qahl ACO                                                              
1000026385           Ribkdvns                                                    F                                       1914033143743 Oaxbbzusurodeqnafffrnbkmpgkotwnjlhgm Dr                                                                                                                        Nxnbxkptqrehpwrypcjpzgutmwkxwvkshnq     ST00000    U2019081020190813                      T9993Qahl ACO                                                              
1000026385           Ribkdvns                                                    F                                       1914033143743 Oaxbbzusurodeqnafffrnbkmpgkotwnjlhgm Dr                                                                                                                        Nxnbxkptqrehpwrypcjpzgutmwkxwvkshnq     ST00000    U20190810201908091800           1-800T T9993Qahl ACO                                                              
1000026385           Ribkdvns                                                    F                                       1914033143743 Oaxbbzusurodeqnafffrnbkmpgkotwnjlhgm Dr                                                                                                                        Nxnbxkptqrehpwrypcjpzgutmwkxwvkshnq     ST00000    U2019081120190811     TY              NT9993Qahl ACO                                                              
1000026385           Ribkdvns                                                    F                                       1914033143743 Oaxbbzusurodeqnafffrnbkmpgkotwnjlhgm Dr                                                                                                                        Nxnbxkptqrehpwrypcjpzgutmwkxwvkshnq     ST00000    U20190813201908171800                  T9993Qahl ACO                                                              
1000026399           Cqkdqwitiyjsczbpbagmd                                       Ypchsajnlogszlzinnvvsnlmau              190309044644 Dknmt Blvd                                                                                                                                                      Sqpvmfphfdzstxsjrftzcfz                 ST00000    U2019081320190812     TN        1-800 NT9993Etnpnwy ACO                                                           
1000026399           Cqkdqwitiyjsczbpbagmd                                       Ypchsajnlogszlzinnvvsnlmau              190309044644 Dknmt Blvd                                                                                                                                                      Sqpvmfphfdzstxsjrftzcfz                 ST00000    U2019081120190811     T         1-800 NT9993Etnpnwy ACO                                                           
1000026399           Cqkdqwitiyjsczbpbagmd                                       Ypchsajnlogszlzinnvvsnlmau              190309044644 Dknmt Blvd                                                                                                                                                      Sqpvmfphfdzstxsjrftzcfz                 ST00000    U20190812201908151800 T              T T9993Etnpnwy ACO                                                           
1000026399           Cqkdqwitiyjsczbpbagmd                                       Ypchsajnlogszlzinnvvsnlmau              190309044644 Dknmt Blvd                                                                                                                                                      Sqpvmfphfdzstxsjrftzcfz                 ST00000    U20190811201908131800  Y        1-800TNT9993Etnpnwy ACO                                                           
1000026405           Lqzuumrrhikgg                                               Hrhljksnnarongdooofmchowm               1947070538044 Gudcrzzqsydzezg Blvd                                                                                                                                           Xyyanccrjufl                            ST00000    U2019081220190810     TN               T9993Fvyugzmfdnpalwtptnrebiufoexcmcinudknqrt ACO                           
1000026405           Lqzuumrrhikgg                                               Hrhljksnnarongdooofmchowm               1947070538044 Gudcrzzqsydzezg Blvd                                                                                                                                           Xyyanccrjufl                            ST00000    U2019081520190810      Y             TNT9993Fvyugzmfdnpalwtptnrebiufoexcmcinudknqrt ACO                           
1000026429           Yboxaqicob                                                  Mehbhhuiaatdopxca                       1938090728538 Nqwodnpmebqcg Blvd                                                                                                                                             Cephumblvukxvflhzr                      ST00000    M20190811201908101800           1-800T T9993Safszcqbgvmxgormhgkzswtxnyyptgtbblyapqzekv ACO                        
1000026430           Rgsxyxbchmskat                                              Vbdxyrgjkqhoowaa                        1954080821194 Z Ave                                                                                                                                                          Jeo                                     ST00000    M2019080920190815     T              TNT9993Vkfbstbexr ACO                                                        
1000026461           Mawokjrgonw                                                 Svb                                     1938050527812 Sdhkbzyvcss Dr                                                                                                                                                 Vliyppzckflxogldzfzgweaufsxlousrzk      ST00000    U20190814201908121800 TN        1-800  T9993Ogswaqcx ACO                                                          
1000026461           Mawokjrgonw                                                 Svb                                     1938050527812 Sdhkbzyvcss Dr                                                                                                                                                 Vliyppzckflxogldzfzgweaufsxlousrzk      ST00000    U2019081420190810     T              TNT9993Ogswaqcx ACO                                                          
1000026466           Zmfkfsjnmgkp                                                Gffyzdotbjpbxavfyd                      1927020448748 J Blvd                                                                                                                                                         Ztqneu                                  ST00000    M20190812201908151800                 NT9993Tgdzwfofhltwkhbcpzsenayjyodkvifpuvlqvralqdxbuuaickvvqlxfpmxfbuc ACO   
1000026466           Zmfkfsjnmgkp                                                Gffyzdotbjpbxavfyd                      1927020448748 J Blvd                                                                                                                                                         Ztqneu                                  ST00000    M20190811201908131800 TN               T9993Tgdzwfofhltwkhbcpzsenayjyodkvifpuvlqvralqdxbuuaickvvqlxfpmxfbuc ACO   
1000026548           At                                                          Rpetkkosxawxwgo                         1934092132335 Mdnsjykfbrxalctcvjwebmbheafmnyfz Way                                                                                                                           Ssntfgpaknbdtgbtkbijrqjovjuuu           ST00000    U2019081520190814     TY        1-800 NT9993Bmgwlerqoinkyxmscirkktfmxk ACO                                        
1000026548           At                                                          Rpetkkosxawxwgo                         1934092132335 Mdnsjykfbrxalctcvjwebmbheafmnyfz Way                                                                                                                           Ssntfgpaknbdtgbtkbijrqjovjuuu           ST00000    U2019081320190810     T              TNT9993Bmgwlerqoinkyxmscirkktfmxk ACO                                        
1000026554           Igipfzmrxxitkhrjt                                           Jwdfwaxkjxjcugswkqyv                    195108161740 Wkbskfdinkswhtrxvbqohvwmjglrgfst Blvd                                                                                                                           Xqzsdzqyjl                              ST00000    U2019081420190810     TY        1-800 NT9993Hjoojrawjlritsdwuzhuyljfwfgicffrnyhqfscbcyfufgwnodnollu ACO           
1000026554           Igipfzmrxxitkhrjt                                           Jwdfwaxkjxjcugswkqyv                    195108161740 Wkbskfdinkswhtrxvbqohvwmjglrgfst Blvd                                                                                                                           Xqzsdzqyjl                              ST00000    U2019081120190816               1-800  T9993Hjoojrawjlritsdwuzhuyljfwfgicffrnyhqfscbcyfufgwnodnollu ACO           
1000026554           Igipfzmrxxitkhrjt                                           Jwdfwaxkjxjcugswkqyv                    195108161740 Wkbskfdinkswhtrxvbqohvwmjglrgfst Blvd                                                                                                                           Xqzsdzqyjl                              ST00000    U20190811201908161800  Y        1-800T T9993Hjoojrawjlritsdwuzhuyljfwfgicffrnyhqfscbcyfufgwnodnollu ACO           
